:100000000C943E000C9448000C9448000C9448005A
:100010000C9448000C9448000C9448000C94480040
:100020000C9448000C9448000C9448000C94480030
:100030000C9448000C9448000C9448000C94480020
:100040000C9448000C9448000C9448000C94480010
:100050000C9448000C9448000C9448000C94480000
:100060000C9448000C9448000C9448000C944800F0
:100070000C9448000C9448000C94480011241FBEB6
:10008000CFEFD8E0DEBFCDBF0E9459000C949400A2
:100090000C9400004A9B0BC08FE19EE40197F1F79E
:1000A00000C0000089B182FB882780F9089580E0B4
:1000B00008958FEF81B91AB8D1E0C2E0D2B92FE725
:1000C0008AE196E0215080409040E1F700C00000B6
:1000D0000E944A008823E1F3C2B92FE78AE196E043
:1000E000215080409040E1F700C000000E944A008B
:1000F0008823E1F32FE78AE196E021508040904089
:10010000E1F700C000000E944A008111D7CFD2B9A8
:100110008FEC97E00197F1F700C00000C2B987E5C6
:0C01200092E00197F1F7EDCFF894FFCFCB
:00000001FF
